S01300004C61626F7261746F7279372E73726563BB
S1130000A02800207D03000079030000790300008C
S113001000000000000000000000000000000000DC
S11300200000000000000000000000007903000050
S113003000000000000000007903000079030000C4
S113004079030000790300007903000079030000BC
S113005079030000790300007903000079030000AC
S1130060790300007903000079030000790300009C
S1130070790300007903000079030000790300008C
S1130080790300007903000079030000790300007C
S11300907903000000000000000000007903000064
S11300A0790300007903000079030000790300005C
S11300B00000000010B5064C2378002B07D1054B37
S11300C0002B02D0044800E000BF0123237010BDC0
S11300D04404002000000000200B0000084B10B571
S11300E0002B03D00749084800E000BF0748036815
S11300F0002B00D110BD064B002BFBD09847F9E72D
S11301000000000048040020200B0000200B000029
S113011000000000034B1B7EDB07FBD580B2014BC4
S1130120188570470008004210B504000A2803D05F
S11301302000034B984710BD0D20014B9847F7E76B
S113014015010000024A1368591C116018707047A9
S11301506004002010B50300092807D9084A127961
S1130160002A01D1572002E0372000E03020C018D7
S1130170C0B2044B98470122014B5A7110BDC046CE
S1130180600400204501000010B50D4A93681B046B
S11301901B0C9360002204E01B1A09498B60013296
S11301A0D2B2074B9B688342F6D2054B5B79002B96
S11301B001D1002A02D01000024B984710BDC0465E
S11301C060040020550100000FB4F0B5C64600B528
S11301D082B008AB10CB0193B0E002342978302907
S11301E019D000250B00303BDBB2092B29D900269E
S11301F05B4B1A000C321A6000225A71632969D0D1
S113020021D8252974D0582924D0002900D1A0E070
S1130210534F0C3750E0AC1C69780125E2E7B2007B
S1130220D2B2B218D3B25B00DBB2CB18DBB2303B34
S1130230DEB2217801340B00303BDBB2092BEED95E
S1130240D6E70026F7E773294DD01CD975291CD0B1
S11302507829DDD158394B424B41414F3B71019BC9
S11302601A1D01921B68BB60802040013D4B9846DB
S1130270984780204000C0471020C047387A3A4B46
S113028098470C3718E06429C2D1019B1A1D0192CA
S11302901B68334A9360642914D03448314FB847FB
S11302A0FA208000B8476420B8470A20B8472C4F8A
S11302B0387A2D4B98470C37294B002219680A705D
S11302C01F601DE0002BE8DA5B4293602D20284B71
S11302D09847E2E7019B1A1D01921878244B98472E
S11302E01F4F0C37E8E7019B1A1D01921F68E3E7D3
S11302F025201F4B98471A4F0C37DDE7013EF6B215
S1130300174A1368591C11601B78002B06D0002E65
S1130310F4D103E02020174B98474646731EDBB206
S11303209846002E06D0002DF4D03020F3E7114B70
S113033098472F007D1C38780028F8D1651C207858
S1130340002806D0252800D147E70A4B98472C00FF
S1130350F4E702B004BC9046F0BC08BC04B01847F3
S113036060040020890100005501000010270000EE
S11303704501000029010000FEE70000F8B5234A0A
S1130380234B9A4209D0224B204A03E0116819609A
S1130390043304321F498B42F8D31F4B02E000227E
S11303A01A6004331D4A9342F9D31D4AFF211D4BA1
S11303B08B439360FD3990235B001B4AD1501B4A49
S11303C0D3780325AB4302242343D370D3780C277B
S11303D0BB4308263343D370154B987B302290439C
S11303E0202210439873997BB943314399739A7BC4
S11303F0AA4322439A730F4A516880230B435360E4
S11304000D4B98470D4B9847FEE7C046200B000064
S11304100000002044040020440400209C08002024
S113042000ED00E0000000000070004100500041B9
S11304300048004100400041A1080000610600009E
S1130440014A024B1A60704740420F00000000202E
S113045010B58022D202054B1A60002403E0FF206D
S1130460034B984701344B2CF9D910BD1844004173
S1130470E1070000F8B5CE46474680B50F00904628
S1130480037899468022D202354B1A600024FF2655
S113049006E0451C0078334B9847060001342800D9
S11304A0BC42F6D34B46482B31D006D94B46692B78
S11304B041D0772B50D100244BE0402B4CD1002469
S11304C00BE0FF20274B9847050006000100264853
S11304D0264B984743461D550134022CF1D98022FE
S11304E0D202234B1A6030000CBC90469946F8BDEA
S11304F0FF201C4B98470500060001001A481B4BBF
S1130500984743461D550134062CF1D9E7E70024EA
S1130510FAE7FF20134B9847050006000100124834
S1130520124B984743461D550134012CF1D9FF2045
S11305300C4B9847D3E70024F7E7FF20094B984773
S11305400500060001000848084B984743461D551E
S11305500134022CF1D9C2E70648044B9847BEE7A0
S113056014440041E1070000680A0000C9010000CA
S1130570184400416C0A0000F0B5D6464F4680B5D9
S113058083B08246019115001E008022D2022D4BB9
S11305901A602D482D4B99469847534618782C4F8E
S11305A0B84701002B48C84701ACE078B847A078A9
S11305B0B8476078B8472078B84701002548C8474D
S11305C053465879B84701002248C847FF20B84726
S11305D0040007E0FF201E4B9847010004001D485B
S11305E01A4B9847FE2CF5D11748184B984700240E
S11305F019E0194B1B7EDB07FBD5FF22164B9A62D1
S1130600154B1B7E9B07FBD5134B1B7E5B07FBD552
S1130610114B9B6A6F1C2B70FF2119400D480B4B2B
S1130620984701343D00B442E3D38022D2020B4BFD
S11306301A600548054B984703B00CBC91469A468E
S1130640F0BDC046144400417C0A0000C90100000A
S1130650E1070000680A0000000C00421844004151
S1130660F8B52E4B98472E4B98472E4B98472E4B58
S1130670984707E02D482E4B98472E4A06212E48CE
S11306802E4B98472B4B5B78012BF3D12C48284BEE
S11306909847284C2200062127480830274B9847C2
S11306A06379AA2B07D02748214B98472648204B2B
S11306B098470020F8BD1F4B1B790F221340012BD4
S11306C0F1D111E021481A4FB8471A4E1A4C2000B4
S11306D0103032000621194DA8471D48B8472000A4
S11306E0183032000621A847124B5B78002BE9D161
S11306F000252C000FE0210016480D4B984780235D
S11307009B000C4A21001448144EB04780239B00E0
S11307109C4664440135042DEDDDC7E74104000027
S1130720150800006107000051040000800A000061
S1130730C901000078040020400A0000750400008C
S1130740880A0000B80A0000E80A0000900A0000C5
S1130750980A0000A00A00000400002079050000A7
S1130760154A116A154B0B401362154A116A082386
S11307700B431362134A144B5A80134B5B78DB0907
S1130780FBD1124A124B1168196080218902596009
S11307909F21197351680F4A91628022D2020E4937
S11307A00A600E490A60196802220A431A60084B5B
S11307B0DB699B07FBD4704700080040FFFCFFFF88
S11307C00004004015400000000C0040F00A000046
S11307D0000C004200440041084400411844004118
S11307E00B4B1B7EDB07FBD5094A936A5B0A5B0252
S11307F018439062064B1B7E5B07FBD5044B986A3B
S1130800C005C00DC0B2024B1B7E9B07FBD57047D1
S1130810000C0042194A116A194B0B401362194B20
S113082019688022D2000A431A604B22995C012085
S1130830014399544A215A5C02435A5415395A5C6B
S113084002200243D2B25A545A5C20200243D2B24C
S11308505A540D4A136A31390B4313620B4A0C4B39
S11308605A800C4B0C4A1A60C02292025A600B4AFE
S11308709A811A6802390A431A60704700080040D6
S1130880FFFCFFFF0044004100040040144000004E
S1130890000C0040000800420400314015FBFFFF3B
S11308A070B50D4E0D4D0024AD1BAD1005D0A30049
S11308B0F35801349847A542F9D100F01FF9084EC6
S11308C0084D0024AD1BAD1005D0A300F35801342E
S11308D09847A542F9D170BD080B0000080B000031
S11308E0080B0000100B0000034B10B5002B02D0C6
S11308F0024800F005F810BD0000000011090000D6
S113090010B5010000230022002000F01FF810BDE4
S113091070B5094B094CE41AA41009D0084AA5186B
S1130920AD00ED182B68013C9847043D002CF9D12B
S113093000F0EEF870BDC0461C0B0000200B000058
S1130940FFFFFF3F7047C0467047C046F0B54E46B4
S11309504546DE465746E0B5364D83B00600286866
S113096098460F009146FFF7EDFF334B1C68A42314
S11309705B00E058002852D043681F2B13DC5A1C3C
S11309800192002E28D1019A02339B0042601F502D
S11309902868FFF7D9FF002003B03CBC9046994675
S11309A0A246AB46F0BD254B002B3DD0C8204000ED
S11309B000E000BF002837D0A42200235200A15831
S11309C043600160A05040328350043283500133AD
S11309D001930023002ED6D09A00924682444A46C0
S11309E0882154466250C4225200914681444A46AA
S11309F08739994012688B460A4394464A466146B1
S1130A001160842241465200A150022EBBD1020043
S1130A105C468D32FF3211680C431460B3E720004A
S1130A204D30FF30E050A7E72868FFF78DFF012025
S1130A304042B1E740040020F80A00000000000032
S1130A40400000000095000048000001AA87000053
S1130A507700000000650000694000000077000096
S1130A605200000000010000202578000A20457291
S1130A70726F7220696E20434D4400000A0A000020
S1130A800A434D303A2000000A434D383A20000012
S1130A900A434D35353A20000A434D34313A20009B
S1130AA00A434D3137202D20416464726573733AD3
S1130AB0202578200A0000000A20566F6C746167B4
S1130AC065206F7220636865636B20706174746560
S1130AD0726E20617265206E6F7420636F7272652E
S1130AE063742E0A000000000A446F6E6500000063
S1130AF00C0030000B0001D218000020F8B5C046ED
S1130B00F8BC08BC9E467047E9080000DD00000000
S1130B10F8B5C046F8BC08BC9E467047B500000056
S1130B2040420F0051000000000100005100000885
S1130B300001000000000000000000000403002089
S1130B406C030020D403002000000000000000001B
S1130B500000000000000000000000000000000091
S1130B600000000000000000000000000000000081
S1130B700000000000000000000000000000000071
S1130B800000000000000000000000000000000061
S1130B900000000000000000000000000000000051
S1130BA00000000000000000000000000000000041
S1130BB00000000000000000000000000000000031
S1130BC00000000000000000000000000000000021
S1130BD00000000000000000000000000000000011
S1130BE001000000000000000E33CDAB34126DE6AE
S1130BF0ECDE05000B000000000000000000000017
S1130C0000000000000000000000000000000000E0
S1130C1000000000000000000000000000000000D0
S1130C2000000000000000000000000000000000C0
S1130C3000000000000000000000000000000000B0
S1070F6078080020E9
S9030000FC
