:10000000A0240020190100001501000015010000C6
:1000100000000000000000000000000000000000E0
:1000200000000000000000000000000015010000BA
:100030000000000000000000150100001501000094
:100040001501000015010000150100001501000058
:100050001501000015010000150100001501000048
:100060001501000015010000150100001501000038
:100070001501000015010000150100001501000028
:100080001501000015010000150100001501000018
:100090001501000000000000000000001501000034
:1000A00015010000150100001501000015010000F8
:1000B0000000000010B5064C2378002B07D1054B3B
:1000C000002B02D0044800E000BF0123237010BDC4
:1000D0003C04002000000000C4090000084B10B5DB
:1000E000002B03D00749084800E000BF0748036819
:1000F000002B00D110BD064B002BFBD09847F9E731
:100100000000000040040020C4090000C4090000F1
:1001100000000000FEE70000F8B5234A234B9A4296
:1001200009D0224B204A03E01168196004330432DD
:100130001F498B42F8D31F4B02E000221A600433A0
:100140001D4A9342F9D31D4AFF211D4B8B439360F7
:10015000FD3990235B001B4AD1501B4AD3780325FD
:10016000AB4302242343D370D3780C27BB43082628
:100170003343D370154B987B302290432022104399
:100180009873997BB943314399739A7BAA4322436D
:100190009A730F4A516880230B4353600D4B984765
:1001A0000D4B9847FEE7C046C40900000000002040
:1001B0003C0400203C0400209C04002000ED00E0F2
:1001C0000000000000700041005000410048004164
:1001D00000400041CD07000005030000014A024B2A
:1001E0001A60704740420F000000002010B51B4B02
:1001F00098471B4A116A1B4B0B4013621A4B196834
:100200008022D2000A431A604B22995C01200143EC
:1002100099544A215A5C02435A5415395A5C0220B7
:100220000243D2B25A545A5C20200243D2B25A54EA
:100230000E4A136A31390B4313620D4A0D4B5A8033
:100240000D4B0E4A1A60C02292025A600C4A9A81E3
:100250001A6802390A431A6010BDC046DD01000069
:1002600000080040FFFCFFFF004400410004004084
:1002700014400000000C004000080042040031401F
:1002800015FBFFFF194A1A4B5A800122194B1A809D
:10029000184B1B88DB07FBD4174A5221535C012003
:1002A000034353541939535C0F2083430420034301
:1002B0005354124A116A80231B010B4313620D4BE6
:1002C000E422D2001A800E4A1A830A4BDB7B5BB20F
:1002D000002BFADB074A138802210B439BB21380E1
:1002E000044BDB7B5BB2002BFADB70471B4000004A
:1002F000000C0040002C004200440041000400407B
:10030000841E0000F8B5CE46474680B52B4B984773
:100310002B4B98472B482C4B98472C4B98472C4BF2
:10032000984708232B4A002168202B4CA047002126
:1003300068202A4DA8472A4C082322000021682063
:10034000284EB04700216820A84725786678A7780E
:10035000227963799846A3799946234B9B7BDB07E7
:10036000FBD521498B7B082083438B739106890F32
:100370001207120F1D48144CA0474346D906C90F57
:100380001A07120F1948A0474B4619091A07120FEE
:100390001748A047F906C90F3A07120F154F380042
:1003A000A0477106490F3207120F3800A0476906AF
:1003B000490F2A07120F1048A047B8E7DD010000D7
:1003C000ED0100006C090000B104000061060000AE
:1003D00085020000040000201507000051070000FE
:1003E0005804002089070000002C00427C0900000E
:1003F000840900008C09000094090000034B1B7E57
:10040000DB07FBD580B2014B18857047000800421E
:1004100010B504000A2803D02000034B984710BDF4
:100420000D20014B9847F7E7FD030000024A1368CF
:10043000591C1160187070476004002010B503004B
:10044000092807D9084A1279002A01D1572002E069
:10045000372000E03020C018C0B2044B984701227A
:10046000014B5A7110BDC046600400202D040000ED
:1004700010B50D4A93681B041B0C9360002204E026
:100480001B1A09498B600132D2B2074B9B68834229
:10049000F6D2054B5B79002B01D1002A02D0100067
:1004A000024B984710BDC046600400203D04000088
:1004B0000FB4F0B5C64600B582B008AB10CB0193BF
:1004C000B0E002342978302919D000250B00303BE8
:1004D000DBB2092B29D900265B4B1A000C321A60BB
:1004E00000225A71632969D021D8252974D058294E
:1004F00024D0002900D1A0E0534F0C3750E0AC1CB1
:1005000069780125E2E7B200D2B2B218D3B25B003B
:10051000DBB2CB18DBB2303BDEB2217801340B000A
:10052000303BDBB2092BEED9D6E70026F7E773297B
:100530004DD01CD975291CD07829DDD158394B42B2
:100540004B41414F3B71019B1A1D01921B68BB60DF
:10055000802040013D4B9846984780204000C0478E
:100560001020C047387A3A4B98470C3718E0642976
:10057000C2D1019B1A1D01921B68334A9360642902
:1005800014D03448314FB847FA208000B84764206F
:10059000B8470A20B8472C4F387A2D4B98470C376C
:1005A000294B002219680A701F601DE0002BE8DA51
:1005B0005B4293602D20284B9847E2E7019B1A1D70
:1005C00001921878244B98471F4F0C37E8E7019B9E
:1005D0001A1D01921F68E3E725201F4B98471A4F09
:1005E0000C37DDE7013EF6B2174A1368591C11605B
:1005F0001B78002B06D0002EF4D103E02020174BEF
:1006000098474646731EDBB29846002E06D0002D52
:10061000F4D03020F3E7114B98472F007D1C387839
:100620000028F8D1651C2078002806D0252800D1A4
:1006300047E70A4B98472C00F4E702B004BC904609
:10064000F0BC08BC04B0184760040020710400002E
:100650003D040000102700002D04000011040000DC
:10066000234A116A234B0B401362234B0722562166
:100670005A5401315A541C395A5C02200243D2B2F6
:100680005A545A5C20200243D2B25A541B4A136A6D
:100690001B390B4313621A4B1A4A5A8059681A4A7B
:1006A0000A435A6080225200184B5A60174BDB698C
:1006B000002BFBD11549CA68FF339A43DD3B134336
:1006C000CB60124BDB69002BFBD1114A0F4B1A6038
:1006D0000E4BDB69002BFBD10C4A538B10210B43D3
:1006E0009BB25383094BDB69002BFBD17047C0469B
:1006F00000080040FFFCFFFF0044004100040040F0
:10070000000C0040174400000406010000140042E1
:100710001600300030B540000C4948620B49097E94
:10072000C907FBD5002008E0155C2821074C65545B
:100730000649097EC907FBD501309842F4DB034A1C
:100740005168C0239B020B43536030BD001400422C
:1007500040000B4B58620A4B1B7EDB07FBD528235E
:10076000074AD154064B1B7EDB07FBD504494A6878
:10077000044B1A4080235B0213434B607047C04612
:1007800000140042FFFFFCFF10B5400001210843A8
:100790000D4948620C49097E8907FBD5002008E015
:1007A0002821094C615C11540749097E8907FBD552
:1007B0000130591E8842F3DB034A5168C0239B0273
:1007C0000B43536010BDC0460014004270B50D4E7F
:1007D0000D4D0024AD1BAD1005D0A300F35801341E
:1007E0009847A542F9D100F0DBF8084E084D0024E7
:1007F000AD1BAD1005D0A300F35801349847A542B6
:10080000F9D170BDAC090000AC090000AC090000D2
:10081000B4090000034B10B5002B02D0024800F0D1
:1008200005F810BD000000003D08000010B50100F3
:1008300000230022002000F01FF810BD70B5094B06
:10084000094CE41AA41009D0084AA518AD00ED1807
:100850002B68013C9847043D002CF9D100F0AAF820
:1008600070BDC046C0090000C4090000FFFFFF3F83
:100870007047C0467047C046F0B54E464546DE4616
:100880005746E0B5364D83B00600286898460F00FD
:100890009146FFF7EDFF334B1C68A4235B00E05843
:1008A000002852D043681F2B13DC5A1C0192002EE3
:1008B00028D1019A02339B0042601F502868FFF73D
:1008C000D9FF002003B03CBC90469946A246AB46F7
:1008D000F0BD254B002B3DD0C820400000E000BFFC
:1008E000002837D0A42200235200A15843600160A1
:1008F000A0504032835004328350013301930023CF
:10090000002ED6D09A00924682444A468821544608
:100910006250C4225200914681444A468739994028
:1009200012688B460A4394464A4661461160842207
:1009300041465200A150022EBBD102005C468D32CE
:10094000FF3211680C431460B3E720004D30FF30D4
:10095000E050A7E72868FFF78DFF01204042B1E78C
:10096000380400209C090000000000000A48656C63
:100970006C6F20576F726C64000000002564256462
:100980002F000000256425642000000025642564F4
:100990003A000000256425640A00000010000020D1
:1009A000F8B5C046F8BC08BC9E4670471508000064
:1009B000DD000000F8B5C046F8BC08BC9E46704794
:0409C000B50000007E
:1009C40040420F0000002806000405220000000039
:1009D40000000000FC02002064030020CC0300207F
:1009E4000000000000000000000000000000000003
:1009F40000000000000000000000000000000000F3
:100A040000000000000000000000000000000000E2
:100A140000000000000000000000000000000000D2
:100A240000000000000000000000000000000000C2
:100A340000000000000000000000000000000000B2
:100A440000000000000000000000000000000000A2
:100A54000000000000000000000000000000000092
:100A64000000000000000000000000000000000082
:100A74000000000000000000010000000000000071
:100A84000E33CDAB34126DE6ECDE05000B00000036
:100A94000000000000000000000000000000000052
:100AA4000000000000000000000000000000000042
:100AB4000000000000000000000000000000000032
:100AC4000000000000000000000000000000000022
:0C0DF40000000000000000007804002057
:00000001FF
